:10000000D2C2000008C3000006C3000004C3000001
:1000100002C3000000C30000FEC20000FCC20000DA
:10002000FAC20000F8C200000C94EB2F0C94B73019
:100030000C94522BF0C20000EEC20000ECC2000093
:10004000EAC20000E8C20000E6C20000E4C200000C
:10005000E2C200000C94C92BDEC20000DCC200002A
:10006000DAC20000D8C20000D6C20000D4C200002C
:10007000D2C20000D0C20000CEC20000CCC200003C
:10008000CAC20000C8C20000C6C20000C4C200004C
:10009000C2C20000C0C20000BEC20000BCC200005C
:1000A000BAC20000B8C20000B6C200000101E66E8C
:1000B0000001013475000101346F00010134690051
:1000C00001013465000101346100290014001A00A7
:1000D0000800150017001C0018000C001200130087
:1000E0002A002B4404001600070009000A000B0038
:1000F0000D000E000F0033002800E1001D001B0062
:100100000600190005001100100036003700380005
:100110003400E0007600E300E20021522C000000F1
:1001200022524C00E4004A004D003102220231000C
:100130002F003000350000000000520000000000D9
:100140002A0020022E00210226022702460000007B
:10015000500051004F000000250235021E021F0210
:100160002F02300224020000000000000000000006
:10017000000000002D0236023702010001000000DD
:1001800001000000000000000000000000003A0034
:100190003D0044004B004E001E001F0020002E02B8
:1001A0002A00E10000003B003E0045000000000086
:1001B00021002200230025022800000000003C004E
:1001C0004200000000000000240025002600380046
:1001D0002E003900000000000000010001000000B6
:1001E0000100270037004C002D0027782178237864
:1001F000257829784B000000D100CD00D200000006
:10020000007C28782278247826782A784E0000000E
:10021000CF00CE00D0000000A800000000000000C9
:1002200000000000000000000000000000000000CE
:10023000AA0020780000000000000000000000007C
:100240000000000000000000A90000000000000005
:10025000417E000000000000447E427E437E00009C
:1002600000000000407E00000000000000000000D0
:10027000000000000000000000000000000000007E
:10028000000000000000457E0000000000000000AB
:10029000000000000000000000000100010000005C
:1002A0000100000000000000000000010101010148
:1002B000010101010202020202020202020303031F
:1002C00003030303030404040404040405050505EF
:1002D00005060606060607070707070808080809AF
:1002E0000909090A0A0A0B0B0B0C0C0C0D0D0D0E5B
:1002F0000E0E0F0F0F1010111111121213131414F0
:10030000151516161717181819191A1A1B1B1C1D64
:100310001D1E1E1F202021222223242425262627BD
:100320002829292A2B2C2D2D2E2F303132323334EF
:1003300035363738393A3B3C3D3E3F4041424344F5
:1003400045464748494A4C4D4E4F505153545556D7
:1003500058595A5B5D5E5F616264656668696B6C83
:100360006D6F7072737577787A7B7D7E80828385FE
:1003700087888A8C8E8F91939596989A9C9EA0A23E
:10038000A3A5A7A9ABADAFB1B3B5B7BABCBEC0C248
:10039000C4C6C9CBCDCFD1D4D6D8DBDDDFE2E4E70C
:1003A000E9EBEEF0F3F5F8FAFDFF000000000000C5
:1003B00000002A2B280000000000000000000000C0
:1003C000000000000029000000002C1E3420212223
:1003D00024342627252E362D3738271E1F2021228C
:1003E000232425263333362E37381F040506070805
:1003F000090A0B0C0D0E0F101112131415161718F5
:10040000191A1B1C1D2F3130232D35040506070832
:10041000090A0B0C0D0E0F101112131415161718D4
:10042000191A1B1C1D2F3130354C00000000000034
:1004300000000000000000000000000000000000BC
:1004400000000000000000000000000000007E0F1F
:1004500000D4FFFFFFC700000078220342004D00D8
:1004600034003000200048006F00740073007700F3
:100470006100700020005200470042000000160397
:100480004B005000520065007000750062006C0067
:100490006900630000000403090409023B00020133
:1004A00000A0FA0904000001030101000921110163
:1004B000000122440007058103080001090401002E
:1004C0000103000000092111010001227B00070542
:1004D00082032000011201000200000008504B308E
:1004E0003401000102000105010902A10185020990
:1004F00001A10005091901290815002501950875B4
:100500000181020501093009311581257F950275A8
:1005100008810609381581257F9501750881060532
:100520000C0A38021581257F950175088106C0C027
:1005300005010980A101850319012AB700150126CB
:10054000B700950175108100C0050C0901A1018556
:100550000419012AA002150126A002950175108137
:1005600000C005010906A101050719E029E71500EA
:10057000250195087501810295017508810105071E
:10058000190029FF150026FF009506750881000552
:100590000819012905150025019505750191029598
:1005A0000175039101C011241FBECFEFDAE0DEBF59
:1005B000CDBF04B603FE18C0809154059091550537
:1005C000A0915605B09157058730904BA740B04B8E
:1005D00059F4109254051092550510925605109238
:1005E0005705E0E0F8E3099512E0A0E0B1E0EEEF96
:1005F000F8E602C005900D92A838B107D9F725E0BA
:10060000A8E8B2E001C01D92A435B207E1F70E944C
:100610002A120C94E633F4CC9C01FB0123348EE7C0
:100620003807A1F168F421348EE7380709F1223444
:100630008EE7380721F120343E4781F081E00895AC
:1006400024348EE7380749F125343E47B9F78581D0
:10065000811561F060E08CEA90E006C0858181152B
:1006600029F060E085EC90E00E94EC2880E008959D
:1006700085818115D9F360E080EC90E0F5CF85812C
:100680008115A1F360E08BEB90E0EECF85818115C1
:1006900069F360E086EB90E0E7CF8581811531F367
:1006A00060E081EB90E0E0CF23E042E061E050C603
:1006B0008530B8F46430A8F44C3098F4E42FF0E0BE
:1006C0009CE0699FE00DF11D112490E3899FE00DEE
:1006D000F11D1124EE0FFF1FE653FF4F85919591F9
:1006E000089581E090E00895E3CF089581E00895B2
:1006F00081E00895FBCF089581E0089581E0089599
:100700008BCF089508950895FDCF08950895089515
:10071000A6E0B0E0EEE8F3E00C94D23249835A83CD
:100720009E8330918F0289819A81311117C03E8159
:10073000311589F0211579F0ABD5182F682F8981F3
:100740009A8185D569817A81812F0E946B0F2696C7
:10075000E3E00C94EE328CD5182FF4CF99D5698153
:100760007A81F3CFFC01262F408151816281738110
:1007700084819581CDCFCF93DF93D82FC92F61E0AE
:10078000F1DF6D2F7C2FB4DF811539F061E08D2F03
:100790009C2FE8DF6D2F7C2FADDFDF91CF91089587
:1007A0000F931F93CF93DF93D82FC92F60E0DADF29
:1007B0008C016D2F7C2FA7DF6D2F7C2FC801A4DF4C
:1007C000DF91CF911F910F91089521E030E0A901B1
:1007D00002C0440F551F8A95E2F7CA0173C4CF9334
:1007E000C82F81E090E00C2E02C0880F991F0A9458
:1007F000E2F70E94710D8C2FE8DFCF91089581E020
:10080000089581E00895FBCF0895CF93C82F09D4B0
:100810008C2FF7DF8C2FF7DF2FEF84E39CE0215044
:1008200080409040E1F700C00000CF91089581E042
:10083000ECDF0C94ED2B80E0E8DF0C94112C0F938F
:100840001F93CF93DF938C0161E08CDFEC01B80143
:1008500055DF811509F44DC0B801CE0151DF811576
:1008600009F447C0B801CE010E946329811509F43B
:1008700040C0B801CE010E949F248115D1F1B8017A
:10088000CE010E9476248115A1F1B801CE010E940B
:100890004012811571F1B801CE010E948D128115AF
:1008A00041F1B801CE010E946A10811511F1F801E1
:1008B0008581811581F0CA35FCE7DF0721F170F4ED
:1008C000C130ECE7DE07E9F0C330FCE7DF07B9F041
:1008D000C115DC4769F0C8010FDF0CC0CB35ECE770
:1008E000DE07A1F0CC35DC47B1F70E94310DF3CF24
:1008F0009EDF80E0DF91CF911F910F9108950E94BC
:10090000690D99DFF6CF0E94380DE5CF0E943A0DB0
:10091000E2CFFCDE0E94192B0E9440221DD081E014
:100920000C9419231BD080E00E941923F0DE0C9454
:100930001D2B81E008950895CF93DF93D82FF9DF21
:10094000C82F811511F08D2FF6DF8C2FDF91CF91FD
:1009500008950895F1CF089580E0FCCF0E94A92961
:10096000F9CFCF930E94A929C82F80918A028C17B2
:1009700071F0C0938A020E94BD2B60938B0270932A
:100980008C0280938D0290938E028C2FE3DFCF91A7
:100990000895ADE0B0E0EFECF4E00C94D33248877A
:1009A00059876A877B878C879D879111ACD71F8277
:1009B00086E0FE013896DE01119601900D928A952F
:1009C000E1F78D8181110CC029813A814B815C81D5
:1009D0006D817E818F81E7D62D96E2E00C94EF3217
:1009E000CE010196C8DE8111EFCFF6CFFC018481E4
:1009F000813019F4808191817CC40895611521F0C2
:100A00000E9401260C94BA260E944226FBCFCF9367
:100A1000C82F8115B9F08238B9F40E94B82981FD38
:100A200011C089E30E947A2AD8D72FEF37EE83E0EE
:100A3000215030408040E1F700C0000089E30E946F
:100A4000802ACBD7CF910895833899F40E94B82992
:100A500080FDF8CF83E50E947A2ABFD79FEF21EE71
:100A600034E0915020403040E1F700C0000083E5C1
:100A7000E6CF843899F40E94B82982FDE3CF87E459
:100A80000E947A2AAAD78FEF91EE24E081509040FD
:100A90002040E1F700C0000087E4D1CF8CEF8C0F3D
:100AA000813A68F48C2F0E943E2A811521F08C2F08
:100AB0000E94802A92D78C2F0E947A2AC2CF80E28D
:100AC0008C0F883040F4C77081E001C0880FCA9550
:100AD000EAF7FAD6B6CF8BE58C0F833038F42C2F9B
:100AE0002452330BC9010E94DA29ACCFE8E5EC0FA0
:100AF000EB3150F4F0E0EE0FFF1FE450FE4F808129
:100B000091810E94022A9ECF83E38C0F833108F0EB
:100B100099CF61E08C2F72DF95CF811509F44DC01C
:100B2000823861F40E94B82981FF47C089E30E949E
:100B30007A2A53D789E30E94802A4FC7833851F419
:100B40000E94B82980FF39C083E50E947A2A45D7E0
:100B500083E5F1CF843851F40E94B82982FF2DC07B
:100B600087E40E947A2A39D787E4E5CF9CEF980F73
:100B7000913A08F390E2980F983048F4877091E02A
:100B800001C0990F8A95EAF7892FA4D6D6CF9BE5A5
:100B9000980F933020F480E090E00C94DA2998E5E7
:100BA000980F9B3120F480E090E00C94022A93E3AC
:100BB000980F933110F460E021CF08950F931F93A5
:100BC000CF93C82F8B0123DF0115110531F48C2F32
:100BD000A4DFCF911F910F9108958FE99FE00197B6
:100BE000F1F700C0000001501109EECF60E570E0A0
:100BF000893311F060E070E0E1CF811511F064D627
:100C0000ECC60895811511F065D6E7C60895A0E0F9
:100C1000B0E0EDE0F6E00C94CD326C01D62FC72F9A
:100C2000FC011581068102950F7043D6E82E8115CF
:100C3000E9F0E12E1115D1F08C2F807F803461F026
:100C400080E28D0F8830E0F08C2F807E803221F49E
:100C5000D230B0F00115A1F080915E0482FF10C087
:100C600082E0D8D626D691E0E82EE926EC2FE29550
:100C7000EF70C03C78F5F0E0E851FC4C0C94BD32CC
:100C8000E12CF4CF0C2F0F70C03110F00295007FD3
:100C9000111581F0011549F080E28D0F883010F0B8
:100CA000D11105C0802F10D698D68D2F41C0802F2E
:100CB0001CD6FACF8D2F31DF011561F080E28D0F48
:100CC000883010F0D11103C0802F04D602C0802FCD
:100CD00012D683D6E11409F4B7C0E7D580FDB4C0BD
:100CE000F6011582DCD51DD2C6016CD1D8D527D22C
:100CF000ABC0FC2FFF70FF2EC07FC03219F0F29402
:100D000080EFF822D11541F0D13081F1111509F4AD
:100D100039C00115C9F0C9CF80915E0482FD10C0B1
:100D2000111541F0F11419F08F2DCED556D680E073
:100D30006EDED0CF80E0F1DEF11461F28F2DC5CFF1
:100D4000111559F0011103C08F2D57DFC3CF0130AA
:100D500009F0C0CF8F2DECD5BDCF0111BBCF8F2DAA
:100D600051DF8F2DF0D58F2DD4D5B4CF111521F0B3
:100D7000063008F0AFCFE8CF053008F0ABCF8F2DAD
:100D800041DFA8CF0115D9F3D93349F42FEF87EE0E
:100D900093E0215080409040E1F700C000008D2F8B
:100DA000BCDE98CF8C2F869586958370811569F06F
:100DB000813009F08FCF8D2F9C2F9370111102C0BD
:100DC00080E090E00E94022A85CF8D2F9C2F9370A7
:100DD000111102C080E090E00E94DA297BCF612FE0
:100DE0008D2F0CDE77CF8C2F8370811138C01111BD
:100DF00028C04D2F429546954770440F440F2D2F24
:100E00002F7030E0042E02C0220F331F0A94E2F745
:100E100080E090E0D4FF09C08FE090E002C0880F2E
:100E2000991F4A95E2F780959095C695C695C3702F
:100E3000822B932BC23079F0C33079F0C13049F066
:100E40004AD10E94A92986DDCDB7DEB7E8E00C942F
:100E5000E9323AD1F6CF46D1F4CF34D1F2CF1115E1
:100E600059F1C0FFEECF4D2F429546954770440F84
:100E7000440F2D2F2F7030E0042E02C0220F331F9D
:100E80000A94E2F780E090E0D4FF09C08FE090E0A0
:100E900002C0880F991F4A95E2F780959095C695F4
:100EA000C695C370822B932BC23061F0C33061F0C2
:100EB000C13031F069D1C5CF823008F4C2CFD3CF71
:100EC0005CD1BFCF68D1BDCF18D1BBCFCF701115CA
:100ED00029F08C2F26D18D2F90DEB3CF8D2F92DE6F
:100EE0008C2F2DD1AECFD23F31F168F4D03FC1F07D
:100EF000D13F89F0111509F43EC0011509F438C03D
:100F00008D2F85DD9ECFD33FE1F0D43F99F78091BF
:100F10005E0482FD1EC08C2F8F71111511F30FC05E
:100F2000111539F0053008F08CCF8C2F8F7117D147
:100F300088CF0630F8CF8C2F8F711111D2CFF1D01E
:100F400080CF111521F08C2F8F71E1D07ACFDCD0BA
:100F500078CF111529F063E08C2F8F7143D571CFB5
:100F600081E058D5023008F46CCF82E053D569CFC8
:100F70008C2F8F71E4CF011571F0D93349F4EFEF65
:100F8000F7EE23E0E150F0402040E1F700C0000020
:100F90008D2FC3DD56CF8C2F8F71A3CF0F931F934F
:100FA000CF93DF93EC01688179818D81ADD18C0184
:100FB000F9D087D0B801CE012ADEDF91CF911F9101
:100FC0000F910895CF93DF93EC018C81811581F00F
:100FD000CE0135DC81110FC06CD4811549F08D81B3
:100FE000811531F080915E0482FF02C082E012D54B
:100FF000DF91CF910895CE01D1DFCE01D1DBF8CFC3
:1010000080E090E00E94DA2980E090E00E94022ACD
:101010007AD4E3D40E94D4260C94BA260E94862A5D
:10102000EFCF60D4FBCF282F92959F70963099F028
:1010300060F4925F9F70923030F4203FB1F038F44A
:1010400081E0283E38F080E008959A5FF3CF81E098
:10105000243FC9F7089591E0813F09F090E081E0D5
:10106000283E08F080E0892B089581E00895FC0176
:101070008481811521F0808191813BD1D4CF80E0A2
:101080000895A6E0B0E0E7E4F8E00C94D3322696A9
:10109000E2E00C94EF32A7E0B0E0E1E5F8E00C9478
:1010A000D3322796E2E00C94EF320895FECF0895F4
:1010B000FDCF0895FADFFCDF9093AB028093AA0284
:1010C00008950895F7CF08952091AA023091AB02B8
:1010D000822B932BEFCF2091AA023091AB02822377
:1010E0009323E8CF2091AA023091AB028227932765
:1010F000E1CFDACA0895D9CF0895FDDFFADF9093E2
:10110000A9028093A802089580E090E0F6CF21E044
:1011100030E0A90102C0440F551F8A95E2F7CA01C9
:10112000ECCF21E030E002C0220F331F8A95E2F7B6
:101130008091A8029091A902822B932BDECF21E00F
:1011400030E002C0220F331F8A95E2F720953095D8
:101150008091A8029091A90282239323CECF21E00F
:1011600030E002C0220F331F8A95E2F78091A80277
:101170009091A90282279327C0CF2091A802309195
:10118000A902822B932BB9CF2091A8023091A902FA
:1011900082239323B2CF2091A8023091A902822703
:1011A0009327ABCF08959B01677091E001C0990F21
:1011B0006A95EAF763E0369527956A95E1F7220F7D
:1011C000331F220F331FFA01E20FF31F40E050E0FC
:1011D000682F70E08191DF019B01042E02C03695DB
:1011E00027950A94E2F7217021952827292328279B
:1011F0002E934F5F5F4F4430510561F708959C0176
:10120000982F977083E0369527958A95E1F7220FFE
:10121000331F220F331FFB01E20FF31F40E050E0AA
:1012200080E0219130E0092E02C0369527950A947E
:10123000E2F721703327042E01C0220F0A94EAF747
:10124000822B4F5F5F4F4430510559F70895282F87
:10125000862F943060F42C3050F4622F70E02CE034
:10126000929F600D711D112440E952E09CCF0895BA
:10127000292F943058F48C3048F490E060E972E003
:101280003CE0239F800D911D1124B9CF80E008958B
:10129000A0E0B0E0EEE4F9E00C94CC328C01E090F8
:1012A000A802F090A9028091AA029091AB02E82ACC
:1012B000F92ACFE0D0E0CC24C394D12CC6010C2E67
:1012C00002C0880F991F0A94E2F78E219F21892B73
:1012D00049F4219798F7B12C8B2DCDB7DEB7E9E013
:1012E0000C94E832BC2EB8018C2F00D6019789F3FC
:1012F000F3CFCF93DF93D82FC92FCADF6D2F7C2F69
:10130000F5D5DF91CF9108951F93CF93DF93162FDB
:10131000D72F90918F02911539F0862F972FE9DF03
:10132000DF91CF911F910895811569F0862F972F36
:10133000AFDFC82F682F812F9D2F89DF612F7D2F71
:101340008C2FD4D5EDCF862F972F92DFC82FF6CFD5
:10135000DC01E1E0F0E0CF0102C0880F991F6A953F
:10136000E2F7BC01CF0102C0880F991F4A95E2F74E
:10137000AC01682B752B02C0EE0FFF1F2A95E2F718
:10138000CB018A239B238617970721F4CF018A2B51
:101390009B2B0895E095F095CF018A239B23089518
:1013A0000F931F93CF93E091AC02C7E08091AD0201
:1013B0008E1304C0CF911F910F9108950E2F10E04E
:1013C000CE9FF0011124E255FD4F208131814281F1
:1013D00053816481758186815EDEF8013196E77004
:1013E000E5CF2091E6023091E7024091E80250916A
:1013F000E9026091EA027091EB028091EC024BCE1F
:101400008091EC02803178F48091EB02811559F0E3
:10141000E091AC022091AD023091E7024091E602EA
:1014200057E02E1301C008956E2F70E05E9FF0010B
:101430001124DF01A255BD4F14968C91149781158C
:1014400049F111968C911197831324C08C918413C8
:1014500021C015968C91159781111CC012968D9103
:101460009C91A091E802B091E9028A1B9B0B883CF9
:10147000910580F48091EC028F7080618093EC0282
:10148000EC54FD4F80818F708061808386EE92E006
:1014900099DD86CFFB013196E770C3CFE091AC02B6
:1014A0009091AD0227E0E91302C080E00895AE2FCD
:1014B000B0E02E9FF0011124E255FD4F318136132B
:1014C00006C03081381303C03581341304C0FD01D8
:1014D0003196E770E8CF81E008958F929F92AF92A6
:1014E000BF92DF92EF92FF920F931F93CF93DF9300
:1014F000CDB7DEB72D970FB6F894DEBF0FBECDBFC8
:101500008C0186E0F801DE01189601900D928A9513
:10151000E1F7F801F580848196EE892E92E0992E0C
:101520009091EA02911117C0811509F4EFC0F114EE
:1015300009F42EC1C8019BDD811509F429C187E09A
:10154000F801D40101900D928A95E1F7C4014EDAB9
:1015500057DF47DFDBC0E080A280B380D090EB0292
:101560002091E8023091E902A501421B530BD114EE
:1015700009F4CFC0483C510508F09EC0811509F41C
:10158000C5C09091E70291808091EC02803108F013
:1015900065C0991226C09091E6029E1122C0F110FA
:1015A00057C08F7080618093EC021BDF86EE92E063
:1015B00009DD8091EC02F8018683F12C8F2D2D96A8
:1015C0000FB6F894DEBF0FBECDBFDF91CF911F9154
:1015D0000F91FF90EF90DF90BF90AF909F908F9012
:1015E0000895F11035C040E0692D8E2D57DF40E0A1
:1015F000692D8E2D53DFF82E8111DFCF88859985D7
:1016000078DE292F22952F70903450F49F7022306D
:1016100078F0911591F0F8019681903170F4CECF69
:101620002A5F2F70223070F0C801CCDCFD2CC6CFB1
:10163000911519F0811509F4C1CF805E883008F446
:10164000BDCFF2CF803F08F4B9CF815F8330F7CFB1
:101650008091EC0281608093EC02AFCF991207C0B9
:101660009091E6029E1103C0F11409F473C0C80101
:10167000FEDC811509F48CC0F11409F489C0809155
:10168000EC02803280F02091E6023091E7023A834A
:101690002983BC82AB829091EA029D831E828F8354
:1016A000CE0101968FDC87E0F801A6EEB2E0019052
:1016B0000D928A95E1F74CCF9091EC02903188F42D
:1016C000488559856A857B858C859D85DADC86EE23
:1016D00092E078DC87E0F40111928A95E9F781DEE7
:1016E0006CCF811599F02091E70281812813BFCF3B
:1016F0008091E6028E11BBCFF110B9CF9683C8015D
:1017000061DC87E0F40111928A95E9F7FF24F394F4
:1017100055CF483C510508F03EC08115B9F3F1148E
:10172000B9F19091E7028181981329C08091E60276
:101730008E1125C08091EC0280FD18C08031B0F080
:101740008683807F803F39F08681982F907F905FDD
:101750008F70892B8683C80135DC87E0F801A6EEFF
:10176000B2E001900D928A95E1F7F3CE87E0F8019F
:10177000A6EEB2E001900D928A95E1F7C7CFC801BD
:1017800076DC811190CF8091EC0281608093EC0235
:10179000C80118DCBBCF488559856A857B858C8557
:1017A0009D856FDC97CFAEE0B0E0E9EDFBE00C94F7
:1017B000D232288739874A875B876C877D878E87F7
:1017C000CE0108968ADE6C858115A1F0611539F08D
:1017D000288539854A855B857D858E855CDC17E0AB
:1017E0008091AC029091AD02891338C02E96E3E04F
:1017F0000C94EE3287E0FE013896DE0111960190DE
:101800000D928A95E1F7611551F3A091AD028A2FEF
:1018100090E00196877099272091AC02281719064D
:1018200081F097E09A9FD0011124A255BD4FFE018F
:10183000319601900D929A95E1F78093AD02B0DD5B
:10184000CECFEFDB1092AD021092AC0287E0E6EE55
:10185000F2E0DF011D928A95E9F7C1CF189FC00120
:10186000112482559D4F39DE811509F4BFCFE091D7
:10187000AC021E9FF0011124E255FD4F2081318101
:101880004281538164817581868105DC8091AC023F
:1018900090E00196877099278093AC02A1CF809148
:1018A000F50286958695869508958091F502877054
:1018B00008959091F502977081E0911101C080E048
:1018C000089580910103089590910103982B9093BE
:1018D00001030895982F90958091010389238093A7
:1018E0000103089510920103089590910003982B2D
:1018F000909300030895982F909580910003892379
:101900008093000308951092000308950895FECF78
:1019100008959091F602292F2823211529F080950A
:1019200089238093F602F3CF08950895FECF08959A
:101930009091F702292F2823281721F0982B9093B4
:10194000F702F4CF08959091F702292F282321154B
:1019500029F0809589238093F702E8CF089580913C
:10196000F702811521F01092F70280E0DFCF089591
:101970000F931F93CF93DF930091D3011091D40164
:10198000C091010380910003C82B8091F70281155B
:1019900029F0C82B0E942A2A8111E1DFF801C083B7
:1019A000C091D301D091D40148E050E06DEE72E0D7
:1019B000CE010E944F33892B59F088E0FE01ADEE35
:1019C000B2E001900D928A95E1F7CE010E94BA290A
:1019D000DF91CF911F910F910895CACF0895089577
:1019E000FECF0895962F20915E0422FF0EC0682F2F
:1019F000660F660F660F692B6093F50292DB80918C
:101A0000F502869586958695EBCF8BCB1092F502E5
:101A100080E0E6CF9091F502809589238093F502CE
:101A2000282F277021110BC0891749F090915E046F
:101A300092FF05C086958695869581DBE7CF089550
:101A400090915E0492FB222720F9281749F080FB31
:101A500092F990935E048DE594E047D082E0DACF6E
:101A6000089580915E04002482FF0394802DE8CFC6
:101A700081E0E6CF80E0E4CF60E070E0CB0195C389
:101A800060E070E0CB018BD3F7CFA3E0B0E0EBE4F4
:101A9000FDE00C94D33230D33BD31B82CE010396AE
:101AA0004ED381E090E09093AB028093AA0253D38F
:101AB000198284E18A83CE0101965ED30E940518C3
:101AC000DFDF0E94FE172396E2E00C94EF32DDCFB9
:101AD000089524C3089511C3089526C3089535C3F6
:101AE000089539C308953CC3089546C308954BC370
:101AF00008954FC308955FC30895A6E0B0E0E3E8FA
:101B0000FDE00C94D1320E94B12B8C018091020334
:101B1000909103038017910779F019821A820E942D
:101B2000B12BBC0149815A8180E090E00E94C90438
:101B300010930303009302032696E4E00C94ED3225
:101B40000E94BD2B609310037093110380931203C6
:101B50009093130360930C0370930D0380930E0313
:101B600090930F03089508950895FDCF0895089563
:101B7000FEDFFBCF0895FECF08950895FEDFFBCF73
:101B800088E690E178D4F0DFF3CF81E0089581E03A
:101B90000895FBCF0895089508950895FCDFFCDFB4
:101BA000FCCF99DF811101C092DF84E193E095DFE2
:101BB0008DE594E098DF0E94742491DF83DA8091B0
:101BC000A8029091A90295CA0E94A82BB3D3E9DF7D
:101BD0000E94A9040E94F022D1CFA6E0B0E0E3EF7A
:101BE000FDE00C94C732D3DF81110BC086DF0E9469
:101BF00040220E94F5260E94B1042696EEE00C9445
:101C0000E332AAD324E0822E23E0922E540110E086
:101C1000F501619071905F01812FD8D26C011F5F37
:101C2000143009F446C06816790691F380911403C4
:101C300081FDD5D2AEDF782E10E0812FC7D27C0196
:101C4000F401A190B1904F018A159B0569F1A82676
:101C5000BF2400E0CC24C394D12CC5018C219D214C
:101C6000892BD1F066246394C7018C219D21892B97
:101C700009F4612C711459F009831A830E94B12B65
:101C8000BC0149815A8181E0962D0E94C904462DEC
:101C9000602F812F0E947D190F5FCC0CDD1C0C3052
:101CA000E1F6F401F292E2921F5F143031F648DF60
:101CB0009ECF6816790609F0B9CF98CF1F93CF93BE
:101CC000DF9316D1EC01811522E5920708F05AC086
:101CD000811540E5940708F0D7C0803E910528F5AE
:101CE0008D3C910508F0A9C0883A910578F4853AB1
:101CF000910508F09FC08130910509F43EC004971A
:101D0000813A9105D0F1C0E0D0E037C0885A9109FE
:101D10004B97C8F7C85AD0E0CC0FDD1FCE5CDD4F23
:101D20000990D881C02DD46428C0811550E495074E
:101D3000E8F4C11580E2D80708F0BCC0C83ED10560
:101D4000E0F0CE019A9581159F41E8F68D2F71D173
:101D5000182FCE019927CCD0212F30E0322F222707
:101D6000E901CC27DF71C82BD92B07C09927C0D038
:101D7000CC27DF70C82BD92BD06ACE01DF91CF9151
:101D80001F910895803842E59407C8F5803652E5E2
:101D9000950708F05BC0C03482E5D807D0F4C032A4
:101DA00092E5D90708F04BC08C2F8695869520E2E6
:101DB000829FC0011124C37021E030E0A90102C05C
:101DC000440F551FCA95E2F7EA01C82BD92BDD68ED
:101DD000D4CF8C2F86958695877050E2859FC00161
:101DE0001124C37021E030E0A90102C0440F551F47
:101DF000CA95E2F7EA01C82BD92BDC68BECF803C3C
:101E000052E5950758F48F71C03AD245A0F590E09D
:101E1000982F8827EC01C46FD06AAFCF805C9245C1
:101E2000809708F070CFDC2FCC27CC27DF71C06FF4
:101E3000D06AA3CFA497D064A0CFD0659ECFCF7136
:101E4000D0E0DC2FCC27C16FD06A97CF86958695DE
:101E5000877020E2829FC0011124C37021E030E02E
:101E6000A90102C0440F551FCA95E2F7EA01C82B29
:101E7000D92BDA6882CFDDD0C82FD0E0DC2FCC2779
:101E8000CC27DF71D06279CF8F71D3D053E0CC0FE4
:101E9000DD1F5A95E1F7CC27DF70282F30E084FF53
:101EA00005C050E1859F900111243327C22BD32B0D
:101EB000D06963CF8D2F8F71BCD0182FCE01992799
:101EC00017D0212F30E0322F222722273F71282BD5
:101ED000392BE901D7CF462F672F743020F44C30CF
:101EE00010F40C94740380E090E00895F4DFE6CEE3
:101EF0009C01803E910509F448C0D8F481339105D6
:101F000009F47DC048F48932910509F46DC08A97BF
:101F100009F47CC0C90108958933910551F18238D3
:101F2000910539F1C597B1F780915D0485FFF2CF36
:101F300029C0843E910509F447C048F4823E9105CA
:101F400099F1833E9105A9F121EE30E0E3CF863E81
:101F5000910509F444C0873E9105E1F680915D0446
:101F600083FD61C090915E0491FF2BC024EE30E0B0
:101F7000D1CF80915D048370811152C080915E0445
:101F800083FFC8CF29E230E0C5CF80915D0480FD9A
:101F900033C090915E0490FFBDCF23EE30E084FF0C
:101FA000B9CF20E030E0B6CF80915D0482FDF5CF5F
:101FB000B1CF80915D0482FD30C090915E0490FDB0
:101FC0002FC084FFA7CFEDCF80915E0481FFA2CF09
:101FD00080915D0427EE30E084FDE3CF9BCF8091BC
:101FE0005D0483FDF7CF96CF80915D0485FD1EC013
:101FF00080915E0483FF8ECF29E330E08BCF809108
:102000005D0486FF87CF2AE230E084CF80915D04B3
:1020100086FF80CF21E330E07DCF22EE30E07ACF23
:1020200020EE30E077CF26EE30E074CF25E330E0CD
:1020300071CF90915D0492FF10C041E0282F247170
:10204000243009F040E031E0282F2871283009F0D1
:1020500030E0431711F02CE0822793FF10C041E0DD
:10206000282F2471243109F040E031E0282F287115
:10207000283109F030E0431711F02CE0822730912D
:102080005E0430FF10C051E0282F2171213009F08B
:1020900050E041E0282F2871283009F040E0541723
:1020A00011F029E0822731FF10C041E0282F217173
:1020B000213109F040E031E0282F2871283109F062
:1020C00030E0431711F029E0822794FD877E0895C0
:1020D00080E00895CF939C01FB01805E9245C1E0B2
:1020E000809738F4C581C11104C0822F8F710E947E
:1020F000EF038C2FCF910895089580E090E00E9427
:1021000095339C0181E0233E3E4F09F080E0089525
:1021100063EE7EEF80E090E00C94C3336FEF7FEFCF
:1021200080E090E00C94C333CF93DF93EC0182E026
:1021300090E00E948D338883DF91CF910895FC0158
:10214000608182E090E00C94A93383E090E00E94EB
:102150008D3390E00895682F83E090E00C94A933CC
:10216000CF93DF93EC0184E090E00E949533998354
:102170008883DF91CF910895FC016081718184E0B3
:1021800090E00C94C33348E050E067E170E00C94B9
:102190007D3348E050E067E170E00C949A33AB0186
:1021A000BC018FE090E00C94BB33AB01BC0183E138
:1021B00090E00C94BB33682F8EE090E00C94A93330
:1021C0000895FECF08950895FECF0895E82FF0E01A
:1021D000EE0FFF1FE959FB4F80819181089508950B
:1021E00080EA8A95F1F7089500C00895F9CF08951F
:1021F000F894E82FE295EF70F0E041A18F7021E0B4
:1022000030E0B90102C0660F771F8A95E2F7CB0173
:10221000962F9095942391A392A1892B82A37894D1
:102220000895CF93DF9383E3E3DF82E3E1DF86EC7E
:10223000DFDF85E3DDDFC8E6D2E089918F3F09F07B
:10224000D7DF82E0C437D807C1F7DF91CF91089577
:102250008F929F92BF92CF92DF92EF92FF920F9355
:102260001F93CF93DF938C01B62EE62EF12CC7017E
:102270008C589D4F6C01FC0180818F3F09F44EC04A
:10228000F894E82FE295EF70F0E091A18F7021E0D3
:1022900030E001C0220F8A95EAF7892F822B81A3B3
:1022A00082A12095282322A378949EDFE8E6F2E01D
:1022B00021E030E0812C912C41914F3F81F0A42FFF
:1022C000A295AF70A05EB0E08C9190E04F7002C01C
:1022D000959587954A95E2F7E90180FF04C080E073
:1022E000C82F90E0D92F8C2A9D2A220F331F82E01D
:1022F000E437F80709F7F60180818F3F09F078DFAE
:1023000061E08114910409F460E08B2D6FDFEE0C25
:10231000FF1C0E0D1F1DF80191828082DF91CF916D
:102320001F910F91FF90EF90DF90CF90BF909F9003
:102330008F90089576DF88E0E7E6F4E0DF01982FDC
:102340001D929A95E9F7EFE5F4E0DF011D928A9579
:10235000E9F784E03BD035CFA8E0B0E0E2EBF1E173
:102360000C94D032FE01319688E0DF011D928A95EF
:10237000E9F710E0FE2E0F2F612F8F2D902F68DFD1
:102380001F5F1430C9F748E050E06F2D702F8FE5C4
:1023900094E00E944F3321E0892B71F420E044E067
:1023A00067E674E08FE594E012D0182F0DDF812FDF
:1023B0002896E5E00C94EC3288E0EF2DF02FAFE5A5
:1023C000B4E001900D928A95E1F7E9CF0895A0E07D
:1023D000B0E0EDEEF1E10C94CD32D82EE92EF62EE0
:1023E000D72F042FC22F211579F081E08093170396
:1023F0000E94B12B909316038093150380E0CDB714
:10240000DEB7E8E00C94E932C0901703C114B1F3D1
:1024100080911503909116030E94322B059770F35B
:1024200010E0000F111FA8016D2D7E2D8F2D9D2F07
:102430000E944F33892B41F0A8016D2D7E2D8F2DE9
:102440009D2F0E945C33CC2D109217038C2FD7CF79
:10245000C4CB08950E944B2B0E94402D91DB0E941B
:10246000582DB2DB0E94612D0E94642DF1DF0E9485
:102470007A2D94DBF9CF9093890280938802089596
:10248000CF93DF93EC01FB018581811104C081E0D2
:10249000DF91CF91089515DA8272FE01E052F8477C
:1024A000EB30F105A0F7EC50FC4C0C94BD320E94CF
:1024B0003C2380E0EDCF811529F00E949223F9CFD3
:1024C0008115D9F30E948723F4CF811529F00E944A
:1024D000BC23EFCF8115D9F30E94B123EACF811538
:1024E00029F00E94D823E5CF8115D9F30E94CA2391
:1024F000E0CF811529F00E94F423DBCF8115D9F3B9
:102500000E94E623D6CF811529F00E940C24D1CF5A
:102510008115D9F30E940024CCCF1F93CF93DF9372
:10252000EC01FB011581111531F011E0812FDF91D4
:10253000CF911F910895C5D98272FE01E054F847EA
:10254000ED30F10590F7E150FC4C0C94BD320E9447
:102550004C23ECCF0E945C23E9CF0E943C23E6CFC2
:10256000811529F00E949223E1CF8115D9F30E94B1
:102570008723DCCF811529F00E94BC23D7CF81159A
:10258000D9F30E94B123D2CF811529F00E94D8231C
:10259000CDCF8115D9F30E94CA23C8CF811529F068
:1025A0000E94F423C3CF8115D9F30E94E623BECF46
:1025B000811529F00E940C24B9CF8115D9F30E940E
:1025C0000024B4CFCF92DF92EF92FF921F93CF936C
:1025D000DF93172FE82F711111C0411521F0F0E0A2
:1025E000E655FD4FE4916E2F7E2F8E2FDF91CF9118
:1025F0001F91FF90EF90DF90CF900895C62ED12CC1
:10260000E72EF12C411521F0F0E0E655FD4FE49165
:1026100086E0689F90011124CFEFD0E0C901BE0190
:102620000E945832AB01C601880F991FF5E5F49F4F
:10263000B001F59F700D1124861B970B682F660F54
:10264000680F6E01CE18DF08EC9DD001ED9DB00D36
:1026500011249B2F169F60011124CD2CDD247E01B7
:10266000EC18FD086701EC9D7001ED9DF00C112444
:102670006E01C61AD108B601169F6001179FD00CD3
:102680001124CD2CDD24CC19DD09EC9F6001ED9FD8
:10269000D00C11247D2D43305105C1F02C3F334027
:1026A00050F441305105B1F04230510561F47E2FB4
:1026B000EB2F9D2D08C04430510579F0463051056F
:1026C00011F07B2F9F2D6E2FE92F8FCF7F2D9E2F07
:1026D000EB2FF9CF7E2FEF2DF6CF9E2FED2D7B2FF9
:1026E000F2CF41E06FCF282F269F020E20E0211D60
:1026F0001124822F08959C0180E090E0269F020E15
:10270000811D369F800D911D1124830F911D089509
:10271000AC018230910508F408959FEF413E8EE1AF
:10272000580740F4CA0125E0969587952A95E1F768
:1027300098E0980F61E0E62FE90FFF27FF1F9F0148
:1027400035952795822F229FF001239FF00DF00DE4
:1027500011244E175F0738F49FEF920F961758F722
:102760008FEF860F08952F3FE9F361E0620FF6CFF8
:102770004091E1015091E20125E038E0429FC00123
:10278000439F900D529F900D1124875E994C90931A
:10279000E2018093E101890F0895CF93C82FE8DF0C
:1027A0008C9FC0011124892FCF910895982FE82F75
:1027B00096FDE0958E2F8F7096FD8F5FE695E695DE
:1027C000E695E670F0E0E858FD4F2181289F202D26
:1027D000812D112422952F708295807F282B808156
:1027E000820F97FD8195805808951F93CF93DF93B3
:1027F000D62FC72F182F822F8695D8DF805887FDB8
:102800008195612F880F6FDF6D2F7C2FDF91CF9126
:102810001F9108950F931F93CF93DF93162FC72F08
:10282000D82F022FE42FF0E0EE0FFF1FEC5CFE4FDD
:1028300064EE808158DF6C2F70E0482F50E0445EDA
:102840005F4F202F30E0CA01801B910997FF03C022
:10285000C901841B950B23E0880F991F2A95E1F786
:102860009B01281B390BC90137FF02C080E090E0B3
:102870006C2F39DF782F612F8D2FDF91CF911F9132
:102880000F9108950F931F93CF93DF93162FD72F98
:10289000C82F022FE42FF0E0EE0FFF1FEC5CFE4F7D
:1028A00064EE808120DF6C2F70E0482F50E0445EA2
:1028B0005F4F202F30E0CA01801B910997FF03C0B2
:1028C000C901841B950B23E0880F991F2A95E1F716
:1028D0009B01281B390BC90137FF02C080E090E043
:1028E0006C2F01DF612F7D2FDF91CF911F910F9111
:1028F0000895622F0895E42FF0E0EE0FFF1FEC5CC7
:10290000FE4F6081621B0895E42FF0E0EE0FFF1F81
:10291000EC5FFE4F61A9621B0895322F50E0FA016F
:10292000EE0FFF1FEC5FFE4F91A9905297FD91951E
:10293000440F551FFA01EC5CFE4F2081231B330B23
:10294000290F311D97FD3A95620F0895EF920F936D
:102950001F9310E09801220F331F200F311F359570
:1029600027956E2D620F1F910F91EF9008950F9391
:10297000CF93DF93D72FC82FF90147FD419528E367
:1029800030E0241B310947FD3395229FA001239F8E
:10299000500D500D1124EE9FC001EF9F900D900D32
:1029A0001124840F951FB4DE982F990F692F680F9B
:1029B000600F7D2F8C2FDF91CF910F9108950F9392
:1029C0001F93522F10E0F801EE0FFF1FEC5FFE4F38
:1029D000A1A9A052BB0B9D015203F001539FF00D22
:1029E0001124000F111FD801AC5CBE4F2C91205751
:1029F000330B4203D001439FB00D11249F012A0FD6
:102A00003B1F37FF02C021583F4F220F232F221FA9
:102A1000330B620F1F910F9108950F931F93522F45
:102A200010E0F801EE0FFF1FEC5FFE4FA1A9A052CE
:102A3000BB0B9D015203F001539FF00D1124000FB9
:102A4000111FD801AC5CBE4F2C912057330B4203B1
:102A5000D001439FB00D11249F012A0F3B1F37FF68
:102A600002C0215C3F4F96E0359527959A95E1F796
:102A7000620F1F910F9108950F931F93A42F10E0E1
:102A8000F801EE0FFF1FEC5CFE4F9081905797FD11
:102A90009195000F111FF801EC5FFE4F01A9005244
:102AA000110B2003A001219F500D112428E330E0D9
:102AB000291B310997FD33951A2F1203F001139F3B
:102AC000F00D11244E0F5F1F9A01220F331F240FA8
:102AD000351F37FF02C021583F4F220F232F221FDF
:102AE000330B620F1F910F9108951F93CF93DF93C4
:102AF000162FD72FC82F822F869558DE805887FD36
:102B000081956CE0880FEFDD682F610F7D2F8C2F92
:102B1000DF91CF911F9108950F931F93CF93DF9370
:102B20008B01D82FC42F822F41DEEC2FF0E0EE0F67
:102B3000FF1FEC5CFE4F90819058890F87FD8195B7
:102B40006CE0880FD0DD682F600F712F8D2FDF9123
:102B5000CF911F910F9108951F93CF93DF93162F5D
:102B6000D72FC82FE42FF0E0EE0FFF1FEC5CFE4FD5
:102B70008081821B87FD819568E1B5DD682F610F3B
:102B80007D2F8C2FDF91CF911F9108952091730499
:102B900030E1230F08F42FEF60E1822F90E0ABDDEE
:102BA000BC0188EB9BE00E94583280E090E00895E1
:102BB000CF93DF93D62FC72F682F842F809593DD77
:102BC0006D2F7C2FDF91CF9108951F93CF93DF93CB
:102BD000162FD72FC82F60E4842F809584DD682FAF
:102BE000610F7D2F8C2FDF91CF911F910895EF9270
:102BF000FF920F93970195E0099F200D311D11243D
:102C0000211591E0390710F02FEF30E02095382F93
:102C1000320F08F43FEF832F0F91FF90EF9008954C
:102C2000EF92FF920F93E00EF11CF90137FF03C002
:102C3000F195E195F10924E0EE0FFF1F2A95E1F7E8
:102C4000E11531E0F30714F0EFEFF0E0DA0157FFA0
:102C500003C0B195A195B10994E0AA0FBB1F9A9545
:102C6000E1F7AE17BF070CF4FD01EE0DFF1DE115F6
:102C700091E0F90710F0EFEFF0E02E2F2095382FBC
:102C8000320F08F43FEF832F0F91FF90EF900895DC
:102C9000EF92FF920F93CF93DF93972FEA01F90101
:102CA000D701093430F4A01BB109A11521E0B20706
:102CB00010F0AFEFB0E02896619740F0AF01485FA9
:102CC0005F4F4131510510F0AFEFB0E02A2F209552
:102CD000382F320F08F43FEF832FF7FD33969F0113
:102CE000359527953595279560917004620F792F5A
:102CF000DF91CF910F91FF90EF900895EF92FF92A7
:102D00000F939701201B3109211541E0340710F082
:102D10002FEF30E0322F3095482F430F08F44FEF5C
:102D2000842F620F0F91FF90EF900895EF92FF9222
:102D30000F939701201B3109211591E0390710F0FD
:102D40002FEF30E02095382F320F08F43FEF832F1C
:102D50000F91FF90EF9008959091DB03982B909343
:102D6000DB030895FC019B01009719F4832F807801
:102D70000895AC0197FF04C044275527481B590B01
:102D8000B901640F751F37FD0FC0C901841B950B76
:102D9000A5E0880F991FAA95E1F70E946C3280E2A6
:102DA000861BF7FD81950895CB0165E0880F991F7B
:102DB0006A95E1F7BA01621B730B0E946C3280E6E0
:102DC000EFCF0F931F93CF93DF93162FC72FD82FDB
:102DD000BA01C9012C2F201B022FC4DF982F990F95
:102DE000990F891B6C2F800F7EDC782F612F8D2F20
:102DF000DF91CF911F910F9108950F931F93CF9360
:102E0000DF93162FD72FC82FBA01C9012C2F201BF3
:102E1000022FA8DF982F990F990F891B6C2F800F15
:102E200062DC612F7D2FDF91CF911F910F9108956B
:102E3000EF920F931F93CF93DF93162FC72FD82FA7
:102E4000BA01C9010E190C0F8DDF6C2F081B802FE2
:102E50004ADC782F612F8D2FDF91CF911F910F9139
:102E6000EF900895EF920F931F93CF93DF93162F58
:102E7000D72FC82FBA01C9010E190C0F73DF6C2FA1
:102E8000081B802F30DC612F7D2FDF91CF911F91A8
:102E90000F91EF9008950F93CF93DF93D72FC82F03
:102EA000BA01C9015FDF682F600F7D2F8C2FDF9182
:102EB000CF910F910895EF920F93CF93DF93D72F78
:102EC000C82FBA01C9010E194DDF602F681B7D2F75
:102ED0008C2FDF91CF910F91EF90089502CC089540
:102EE000A0E0B0E0E6E7F7E10C94C632982E862E1B
:102EF00090E0A62EB12C4CE0489FF0011124EC5F2D
:102F0000FE4FE60FF11DC081CF3F09F43AC0E12C1E
:102F1000F12C612CD0E09E01220F331FB9016C5CB3
:102F20007E4F6B01E901CB5CDE4F489F9001499FCA
:102F3000300D1124265F3B4FA20EB31E8701712C6A
:102F400088E2582EF801EC5FFE4F20812F3F59F0A8
:102F500096101CC087101AC0F501208130E2230FA3
:102F600008F42FEF208373940F5F1F4F7CE07712DC
:102F7000E9CF63948CE0E80EF11CE0E3EE16F10477
:102F8000E9F6CDB7DEB7EFE00C94E23230E0F601BF
:102F90004081F901EE0FFF1FEC5CFE4F8081481B62
:102FA000550B8881220F331FF901EC5FFE4F91A969
:102FB000682F691B770B9B01449FB001459F700DE3
:102FC000700D1124229FC001239F900D900D11249C
:102FD000860F971F9DDB382F893228F6252D231B5E
:102FE00008F420E0F801E65FFB4F213108F020E112
:102FF0003081320F08F43FEF3083B5CF8FE694E095
:103000000E94790D1092DB030895EFE6F4E085E36A
:1030100080838091F9019091FA01A091FB01818355
:103020009283A3838FE784838FEF8583CF010E94F0
:10303000790D1092DB03089580E008950F931F939C
:10304000CF93DF93C82FD62F8A01F6DF9CE0C99F6C
:10305000900111242C5F3E4FF901ED0FF11D90817D
:103060009F3F29F0F801E80FF11D90838F5FDF91FA
:10307000CF911F910F910895E0918602F091870200
:10308000099508950895FF920F931F93CF93DF93AF
:10309000162F042FF22EC0918202D0918302F2DF0C
:1030A0002F2D402F612FFE010995CDB7DEB7E5E04A
:1030B0000C94EC321F93CF93DF93C82FD0E0FE0126
:1030C000E256FE4F80816823611571F051DB182FA5
:1030D00080E863DB7FE7780F612F80917204FEDE6A
:1030E000472F282FCE01CFDFDF91CF911F91089579
:1030F000A0E0B0E0EEE7F8E10C94CE32C82FD0E0CB
:10310000FE01E256FE4F80816823611529F1D090BF
:1031100071040091720410917004E12EF12C83E08F
:103120003CDB482FC7018C549F4F68E671E00E943A
:103130006C328E199F0997FD039695958795959505
:103140008795612F489F600D11247D2D802FC6DE4D
:10315000472F282FCE0197DFCDB7DEB7E7E00C94DD
:10316000EA32E0918402F091850209950895A8E081
:10317000B0E0EDEBF8E10C94C432FC01F090720485
:10318000AF2CB12C8501000F111F0A0D1B1D1695C8
:10319000079516950795302E8FEF90E0B5010E94A8
:1031A0006C32562E8281811569F040E060E080E04B
:1031B000D8DFEAE0F4E080E3DF011D928A95E9F7C9
:1031C0001092DA038091D9038F5F8093D9038AE04C
:1031D000882E84E0982E412C3501601A710A640112
:1031E000E12C8091DA038E29811169C00E9441335C
:1031F000853595400CF063C0F401F082AE014F5F5D
:103200005F4F642D8E2D1ADF8115C1F0F6012081EC
:10321000E981F0E0321608F061C030E0201B310B8C
:10322000209FC001219F900D309F900D1124B3016C
:103230000E945832262F4F2DCF0125DFE394FCE06A
:10324000CF0ED11C24E0E212CCCF43944FEF841A6E
:10325000940A8CE04812C3CF8091D903851102C033
:103260001092D9038091DA038F5F8D3108F442C048
:103270001092DA0322E234E083E09FEF9F0DD90140
:10328000EAE0F4E0833021F444A1F41201C094A3F5
:103290004C914F1520F09C931C96FC921C973196F4
:1032A000119644E0E631F40769F781502C5031095A
:1032B0008111E5CF80E02896E1E10C94E032D6015F
:1032C0008C91811509F49ACF8F1508F097CF9091C2
:1032D000D903951193CF81508C9390CF2A9DC00133
:1032E0002B9D900D1124B8010E945832462F20E0EA
:1032F00060E0A2CF8093DA03DDCFA8E0B0E0E3E89E
:10330000F9E10C94CB32082FB62EA42E0E94C50DE5
:10331000811509F453C010E0A11439F0AE014F5FDC
:103320005F4F6B2D802F8ADE182F4091DC03E12E3A
:10333000F12C212F240F3327331F293031055CF165
:1033400088E090E06C01CE18DF08B70163527C4F33
:10335000A6018DED93E00E945C33B7016B517C4F69
:10336000A60185EE93E00E945C33A601440F551F31
:10337000B701660F771F6B507C4F85EF93E00E947B
:103380005C33B70163517C4FA6018DEE93E00E9440
:103390005C3348E0411BDE01119650E0252F240FDD
:1033A000151310C02093DC03A11441F080916F0429
:1033B0008C7F8C3719F46B2D802F92DD2896EAE0F4
:1033C0000C94E732FD908F2D90E030E0B90164520B
:1033D0007C4FFC01EE0FFF1FEC5CFE4FE080FB0119
:1033E000E182880F991FFC01EC5FFE4F81A9FB0170
:1033F0008187F18AF901EE0FFF1FE452FC4F128E14
:10340000118E5F5FCBCF81E0089581E00895FBCFFF
:103410000895FBDFFCCF9BE0899F802D1124980F3E
:10342000963308F095E30895A0E0B0E0EAE1FAE110
:103430000C94C5323C012B01FC018081ECDFC82FCC
:10344000192F6091730466958091770490917804A8
:1034500052D9F82ED0E0CE01880F991F9C012C5F25
:103460003E4F69011C1709F048F481E0153308F05C
:1034700080E0CDB7DEB7E0E10C94E132FE01E25628
:10348000FE4F8081F30191818923811559F1F60165
:1034900080A9282F2057330B590181A9E82FE0522A
:1034A000FF0B4F01AA9C9001AB9C300D300D1124F5
:1034B000EE9FC001EF9F900D900D1124820F931F7E
:1034C00027D9082F60917004709171048091720463
:1034D000EF2C9401A501F201099500DD472F282F5B
:1034E000CE01D1DDF2E0CF0ED11C2196BBCF68E139
:1034F00077E19ACF62E377E197CF66EA74E194CF00
:103500006BE577E191CF8F929F92AF92BF92DF925E
:10351000EF92FF920F931F93CF93DF935C014B01C8
:10352000FC01808178DFC82F192F609173046695A4
:103530008091770490917804DED8D82ED0E0CE0127
:10354000880F991F9C012C5F3E4F79011C1709F0D1
:1035500080F481E0153308F080E0DF91CF911F9176
:103560000F91FF90EF90DF90BF90AF909F908F9062
:103570000895FE01E256FE4F8081F5019181892375
:103580008115A9F0F70121A92052330B40A940571A
:10359000550B6091700470917104809172040D2D2F
:1035A000F40109959BDC472F282FCE016CDDF2E05A
:1035B000EF0EF11C2196CACF61EE76E1A4CF6DEF3C
:1035C00076E1A1CF67EB74E19ECF6BE477E19BCF0F
:1035D000A0E0B0E0EEEEFAE10C94CD326C017B019C
:1035E000FC01808118DFC82F192F60917304669544
:1035F000669521E0620F08F46FEF80917704909157
:10360000780479D8082FD0E0C11748F081E015334D
:1036100008F080E0CDB7DEB7E8E00C94E932FE01B7
:10362000E256FE4F8081F60191818923811579F060
:10363000609170047091710480917204202F4C2F5E
:10364000F70109954BDC472F282FCE011CDD219671
:10365000DBCF65EF73E1BCCF6AE074E1B9CF62E420
:1036600074E1B6CF69E774E1B3CF6BE774E1B0CF33
:1036700064E874E1ADCF6DE874E1AACF65E775E168
:10368000A7CF6CE875E1A4CF6CEA75E1A1CFA4E007
:10369000B0E0EDE4FBE10C94CB325C016B01FC018A
:1036A0008081B9DE8B83F92E6091730466956695EF
:1036B00080917704909178041ED8182F80E4810FB0
:1036C00075D880588983812F71D880588A839B81CF
:1036D000892F90E09C838B839B819F1548F081E02C
:1036E000E5E3FE1608F080E02496EAE00C94E73269
:1036F000EB81FC81E256FE4F8081F50191818923A7
:10370000811591F060917004709171048091720440
:10371000E12E0B812A814981F6010995DFDB472FD4
:10372000282F8B819C81AFDC8B819C810196D2CF2D
:103730006FED74E1ACCF6DE075E1A9CF6CE375E19D
:10374000A6CFA0E0B0E0E7EAFBE10C94C8327C0130
:103750006B01FC0180815FDEC82F992E20917304DC
:1037600031E0230F08F42FEF30E040E050E06FEF3E
:103770007FEF80E090E00E94A1325901D0E0822EDC
:103780007B2C2C2FC91550F081E0F5E39F1608F033
:1037900080E0CDB7DEB7EDE00C94E432FE01E256F6
:1037A000FE4F8081F70191818923811509F1809174
:1037B0007B048150082E000C990B87FF1BC0082D3D
:1037C000172D6091730421E0620F08F46FEFC801B8
:1037D0000E947B13AC016091700470917104809120
:1037E0007204F60109957ADB472F282FCE014BDCB6
:1037F0002196C7CFFC01E558FB4F318932130AC02F
:10380000FC01EE0FFF1FE558FB4F018D128D0A15CD
:103810001B05B8F20197D1CF68ED75E192CF65EE47
:1038200075E18FCFAAE0B0E0E8E1FCE10C94C3328F
:10383000382E2B014C835D83FB018081ECDD192F39
:10384000F0917B04FE83282F30E03A872987C90155
:10385000880F991FFC01EC5FFE4F6F01832D90E0F4
:103860009C012F5F3F4F38872F838985811740F058
:1038700081E0153308F080E02A96E2E10C94DF3213
:10388000E985FA85E256FE4F8081F2019181892314
:103890008115E9F0F0917004FA83209171042B8373
:1038A0008F81988585589B4F3C01232C1982FE817E
:1038B0002F16B8F06091720489810E9473136A8197
:1038C0007B810CDB472F282F89859A85DCDB2985B6
:1038D0003A852F5F3F4F3A87298732E0C30ED11CCC
:1038E000C4CFF30181913F01F601A0A8A81ABB083B
:1038F00081A8F3018781881A9908AA9C9001AB9C42
:10390000300D300D1124889CC001899C900D900DC4
:103910001124820F931F0E948813082F6091730453
:1039200021E0620F08F46FEFF301EE0FFF1FEB577A
:10393000F440858996890E947B137C019401A5013E
:103940006A817B818981EC81FD8109956A837B8312
:1039500089832394ACCFBC0120917B0431E0231BED
:1039600008F420E047EF55E1822F5CCFBC0147EF20
:1039700055E180E057CFBC0120917B0431E0231B4F
:1039800008F420E040E156E1822F4CCFBC0140E139
:1039900056E180E047CFBC0120917B0431E0231B3E
:1039A00008F420E048E456E1822F3CCFBC0148E413
:1039B00056E180E037CFBC0120917B0431E0231B2E
:1039C00008F420E04EE756E1822F2CCFBC014EE7F1
:1039D00056E180E027CFBC0120917B0431E0231B1E
:1039E00008F420E046E956E1822F1CCFBC0146E9ED
:1039F00056E180E017CFA0E0B0E0E1E0FDE10C94FB
:103A0000CD327C01FC01808106DDC82F192F609129
:103A10007004709171048091720460DA062FD72EC1
:103A2000C82ED0E01C1709F048F481E0153308F0E7
:103A300080E0CDB7DEB7E8E00C94E932FE01E25653
:103A4000FE4F8081F70191818923811529F02C2D6A
:103A50004D2D602FCE0117DB2196E4CFA0E0B0E022
:103A6000E4E3FDE10C94CA327C01FC018081D3DCEB
:103A7000C82F192FD0917004A0907104B0907204D7
:103A80006D2F7A2D8B2D2ADA062FD72EC82E8091F6
:103A900073046D2F680F7A2D8B2D20DAB62EA72E8A
:103AA000982ED0E01C1709F048F481E0153308F097
:103AB00080E0CDB7DEB7EBE00C94E632FE01E256D3
:103AC000FE4F9081F70181818923811551F0292DC5
:103AD0004A2D6B2D90FD03C02C2D4D2D602FCE0156
:103AE000D2DA2196DFCFA0E0B0E0E9E7FDE10C9467
:103AF000CD327C01FC0180818EDCC82F192FD09043
:103B00007104C09072046091730480E40E94731386
:103B1000082FD0E01C1709F048F481E0153308F0B5
:103B200080E0CDB7DEB7E8E00C94E932FE01E25662
:103B3000FE4F8081F701918189238115A1F0FE015B
:103B4000EE0FFF1FEC5FFE4F81A982958F70609191
:103B50007004809F600D11247D2D8C2DBFD9472FBF
:103B6000282FCE0190DA2196D5CFA0E0B0E0EBEB84
:103B7000FDE10C94CD327C01FC0180814CDCC82F2E
:103B8000192FD0907104C09072046091730480E486
:103B90000E947313082FD0E01C1709F048F481E04D
:103BA000153308F080E0CDB7DEB7E8E00C94E932D9
:103BB000FE01E256FE4F8081F70191818923811534
:103BC000C1F0FE01EE0FFF1FEC5FFE4F20A9209F0A
:103BD0009001112495E0359527959A95E1F760912C
:103BE0007004620F7D2D8C2D79D9472F282FCE019F
:103BF0004ADA2196D1CF0F931F93CF93DF93EC0135
:103C0000888181111AC06091730420E1620F08F469
:103C10006FEF80917704909178040E947B136AE0A3
:103C200070E00E945832892B41F485E30E94CD1345
:103C300090E09093DA018093D9018881ECDB282F02
:103C4000192F082F8A81811117C08091D901909175
:103C5000DA018217910590F08117910578F4698156
:103C600047DA86E390E09093DA018093D90106C0A9
:103C70006981802F3DDA0F5F0117D0F381E01533A2
:103C800008F080E0DF91CF911F910F9108950F937D
:103C90001F93CF93DF93EC01888181111AC060914B
:103CA000730420E1620F08F46FEF80917704909124
:103CB00078040E947B1365E070E00E945832892BE3
:103CC00041F485E30E94CD1390E09093D801809356
:103CD000D7018881A0DB282F192F082F8A81811115
:103CE00017C08091D7019091D8018217910590F06B
:103CF0008117910578F46981DDD986E390E090938E
:103D0000D8018093D70106C06981802FD3D90F5F76
:103D10000117D0F381E0153308F080E0DF91CF91F7
:103D20001F910F910895A0E0B0E0E9E9FEE10C9445
:103D3000C332EC0188816FDB382E792E8A818115A0
:103D400059F040E060E080E00CDAEAE0F4E080E383
:103D5000DF011D928A95E9F78881811117C0809152
:103D60003B0490913C040E94322B8C0181E009318C
:103D7000110508F480E080933A040931110530F010
:103D80000E94B12B90933C0480933B04C12CD12C16
:103D9000512C9AEA492E76018CE0682EF701EC5FEF
:103DA000FE4F5F01E081E31558F0E71548F4F0E0BD
:103DB000E256FE4F80819981892381111BC0539463
:103DC0006A94BFEFEB1AFB0A6110E8CFE4E2CE166B
:103DD000D10431F0FCE0CF0ED11C2BE05216D8F20A
:103DE00081E095E3791608F080E0CDB7DEB7E2E137
:103DF0000C94DF32C701865F9B4F4C01DC011C91A4
:103E0000012F25E5021B08F400E0842D801B082FFC
:103E100020907104242D210F08F42FEF822F880F9A
:103E2000820F609172048E5F0E947313602F722D57
:103E300055D8472F282FD5018C9190E024D9809117
:103E40003A04811509F4BBCF21E0121B08F410E0FD
:103E5000D4011C93B4CFA5E0B0E0E1E3FFE10C9402
:103E6000C332482E8091DF01841122C090916F04EB
:103E700093702091E00130E081E09217130609F47D
:103E800080E08093DE01809174049091DD019817A9
:103E900031F08093DD0140E060E080E062D92DE206
:103EA000421680F4E42DF0E0E45FFB4C0C94BD324C
:103EB00081E0E7CF8091DE01811521F040E060E0F4
:103EC00080E04FD980E003C08CED91E094DD9091CB
:103ED000DC019F5F9093DC0181110CC082E0809334
:103EE000DB018091DE01811105C0411003C083E038
:103EF0008093DB012596E2E10C94DF328CED91E0BA
:103F0000ADDDE5CF8CED91E0EEDDE1CF8CED91E024
:103F10002CDEDDCF8CED91E09CDBD9CF8CED91E0F8
:103F20009BDBD5CF8CED91E09ADBD1CF8CED91E08E
:103F300043DBCDCF8CED91E042DBC9CF8CED91E03E
:103F4000D6DAC5CF8CED91E0D5DAC1CF8CED91E01A
:103F500089DBBDCF8CED91E088DBB9CF8CED91E0B2
:103F600087DBB5CF8CED91E086DBB1CF8CED91E0B6
:103F7000C4DAADCF8CED91E025DBA9CF8CED91E0DB
:103F800024DBA5CF8CED91E0BBDAA1CF8CED91E0E5
:103F9000CFDB9DCF8CED91E0CEDB99CF8CED91E026
:103FA000CDDB95CF8CED91E026DE91CF8CED91E0CD
:103FB0006EDE8DCF8CED91E061DB89CF8CED91E0F1
:103FC00060DB85CF8CED91E05FDB81CF8091DC0100
:103FD00081111DC08091D7039091D8030E94322B8C
:103FE0004091730420E431E0241B3109281739077C
:103FF00070F485E30E94CD1390E09093D6018093F6
:10400000D5010E94B12B9093D8038093D703809160
:10401000DC0101DA9A832091D5013091D60128176D
:10402000310518F12917310500F522563E4FF901E7
:1040300080819091DD0189238115B9F00E94B81328
:1040400081FF19C0198270E080E069810E946E17BB
:10405000472F282F8091D5019091D60114D886E35F
:1040600090E09093D6018093D50181E0FA81F533F9
:1040700008F42DCF27CF0E94B813898380E80E94CF
:10408000CD137FE7780F80917204DFCF8091D30347
:104090009091D403A091D503B091D60340917704B9
:1040A000509178046091790470917A044817590707
:1040B0006A077B0708F406CF8091DE01811153C0A7
:1040C0008091DC01A8D9192FE82EF12C9701220F3D
:1040D000331F2E0D3F1D2C5C3C4F3D832C83E1167E
:1040E00008F47CC01533E0F1812F90E07C01E1E021
:1040F000EE1AF108AC01440F551F480F591F4350E9
:10410000510967E373E084E393E00E9465330E9402
:10411000B8139701220F331F3D832C8381FF79C091
:104120002E0D3F1D2C5C3C4FF90110821182128232
:104130000E94C615C0907704D0907804E09079046E
:10414000F0907A04DC01CB018C0D9D1DAE1DBF1DCE
:104150008093D3039093D403A093D503B093D60355
:1041600081E0153385CF40E060E080E00E94B11827
:1041700004E313E01D821C820E94B81381FF10C06B
:10418000F8011082118212822C813D812F5F3F4FF6
:104190003D832C830D5F1F4F2533310569F790CF89
:1041A0000E94B813D82E80E80E94CD137FE7780FC5
:1041B000EC80FD80EE0CFF1C2C813D81E20EF31E95
:1041C000C7018C5C9C4F7C016D2D809172040E9414
:1041D0006E17F701608371838283D6CFF701E256B1
:1041E000FE4F80819091DD018923811541F0EC81A2
:1041F000FD81228141816081C7010E9443182C8189
:104200003D812D5F3F4F3D832C833FEFE31AF30A3F
:1042100066CF0E94B813082F80E80E94CD137FE775
:10422000780F2C813D812E0D3F1D2C5C3C4F3D8332
:104230002C83602F809172040E946E17EC81FD81A7
:1042400060837183828374CF8091DE01811529F0B0
:1042500040E060E080E00E94B1188091DC01DBD892
:104260009B838091770490917804A0917904B09118
:104270007A04409130035091310360913203709180
:104280003303481759076A077B0708F0A2C06091FB
:10429000700470917104809172040E946E17762EE2
:1042A000672E282E28E133E03D832C8304E011E0C3
:1042B0006801045F1F4F46015801EC80FD80312CDE
:1042C000F70181917F01811509F487C0522C6A8220
:1042D0007982F40181914F0190E0FC01E256FE4F9A
:1042E00020813091DD012323211529F0252D4A81DC
:1042F00069810E944318F50182915F0190E0FC0101
:10430000E256FE4F20813091DD012323211529F053
:10431000252D4A8169810E944318F701808182938B
:104320003394F5E03F12CCCFEC81FD818581B22C36
:104330007301811103C0B12CE12CF12CF6018581B0
:1043400090E0FC01E256FE4F20813091DD012323F5
:10435000211529F02B2D4E2D6F2D0E944318F601AB
:10436000868190E0FC01E256FE4F20813091DD0114
:104370002323211529F02B2D4E2D6F2D0E9443183C
:104380000E94B813837091E0811190E0EC81FD816F
:1043900095833696FD83EC83F1E004331F0709F023
:1043A00087CF0E94C6150091770410917804209160
:1043B000790430917A04DC01CB01800F911FA21F98
:1043C000B31F8093300390933103A0933203B093D3
:1043D000330381E02B8125334BCE512C1A82198275
:1043E00078CF8CED91E09FDC72CD8CED91E00E9456
:1043F000B71868CD8CED91E00FDA69CD8CED91E0C6
:104400000EDA65CD8CED91E0A6DA61CD8CED91E010
:10441000ADDA5DCD8CED91E0AEDA59CD8CED91E069
:10442000B5DA55CD8CED91E0B6DA51CD8CED91E059
:10443000BDDA4DCD8CED91E0BEDA49CD8CED91E049
:10444000C5DA45CD8CED91E0C6DA41CD8CED91E039
:10445000CDDA3DCD81E0089581E00895FBCF089548
:10446000CF93DF93FC01808181500E940B1AEC01F5
:104470006D2FF2DF6D2F8C2FF1DFDF91CF9108953B
:104480008F929F92AF92BF92CF92DF92EF92FF9264
:10449000CF93609105047091060480910704909178
:1044A00008040E943B2B6B017C010E94BD2B609392
:1044B0000504709306048093070490930804A09168
:1044C000DC03ECEDF3E02A2F30E088248A94982C6A
:1044D000A12CB12C8C189D08AE08BF08A3132FC0C7
:1044E0002093DC0320910904C0E0211109C0209130
:1044F0006F04C22FC370C11519F0C22FC695C6959F
:104500002091DB01223009F444C048F5211133C069
:104510001092DC016093770470937804809379049F
:1045200090937A0489E2ECEDF3E0ABE7B4E001901C
:104530000D928A95E1F781E08093DB0112C0418DF5
:10454000528D84169506A104B10420F421503F5FDA
:104550003296C4CF4C0D5D1D528F418FF8CF233062
:1045600019F1CF91FF90EF90DF90CF90BF90AF9077
:104570009F908F9008958C2F6EDCC11591F38091E0
:10458000DB01823011F40E94091A8CED91E068DFA2
:10459000E8CFC093DF0180916F0483708093E001C6
:1045A0000E943C1883E0C8CF8091DB03811531F075
:1045B0008FE694E00E94790D1092DB0360917704FE
:1045C000709178048091790490917A040E943B2B39
:1045D000603171058105910520F21092DB01C1CF98
:1045E000E0918002F0918102099510927B0440E1F4
:1045F00050E06FEF70E084E994E00E94763310920F
:10460000DC0340E150E06FEF70E085EF93E00E9443
:10461000763381E08093DB038FE694E00E94770D90
:104620001092DB0380916F04843010F40C94051811
:104630000895CF93C82F811589F0809109048111C5
:104640000DC009DC1092DF0180916F0483708093AC
:10465000E0010E943C1883E08093DB01C0930904D1
:10466000CF910895EFE6F4E0908121E092279083C6
:104670001092DB010C94AC1681E0F4CF80916F04B2
:104680008370811102C01092DB0180916F048C7FD6
:10469000816080936F040895F1DF81E00C94AC1683
:1046A00080916F04837081111092DB0180916F04FF
:1046B0008C7F80936F040895F3DF81E00C94AC1637
:1046C000982F862F20916F042370211589F0911562
:1046D00081F09D3280F49F73990F990F20916F04A0
:1046E0002370922B90936F041092DB010C94AC1604
:1046F000089591E0F1CF9CE2EFCF682F80916F0495
:10470000869586958F5F8D3208F081E0D9CF81E064
:10471000F4CF682F80916F04869586958A9509F469
:104720008CE2CECF81E0F5CF982F822F20916F04BD
:104730002370211559F09093700460937104453BE8
:1047400008F044EB409372040C94AC160895282FA3
:10475000EFE6F4E09181892F90E043816281089631
:10476000E3CF81E0F4CF282FEFE6F4E081814381AD
:1047700062818850990BD8CF81E0F5CF282FEFE6E2
:10478000F4E0628130E1630F08F46FEF81814381CF
:1047900090E0CACF81E0F2CF282FEFE6F4E062810B
:1047A00030E1631B08F460E08181438190E0BCCF7D
:1047B00081E0F2CF282FEFE6F4E0438130E1430FB0
:1047C00008F44FEF8181628190E0AECF81E0F2CFBB
:1047D000282FEFE6F4E0438130E1431B08F440E08A
:1047E0008181628190E0A0CF81E0F2CFEFE6F4E03A
:1047F000248130E1230F08F42FEF24830C94AC16AE
:1048000081E0F4CFEFE6F4E0248130E1231B08F4EB
:1048100020E024830C94AC1681E0F4CF6A9A0895CA
:10482000FC01EE0FFF1FE80FF91FEC55FB4F6183F2
:10483000408322830895FF920F931F93CF93DF93BA
:10484000182F062FF42EC0E0D0E02F2D402F612F1F
:10485000CE01E6DF2196C533D105B9F7CDB7DEB776
:10486000E5E00C94EC323EB13B7F2EB124604FB7B3
:10487000F89484EA94E0FC010196508168E02EB936
:10488000000000C057FF3EB9550F000000C000C037
:1048900000C03EB900C06A9591F755E08334950792
:1048A00051F74FBF8FE594E00197F1F700C000008A
:1048B00008950C94690D089580E00E94E6108170BF
:1048C00008950E94AC112FEF86E791E021508040BF
:1048D0009040E1F700C000000E94AC11EDDF8115AF
:1048E00011F0E7DF7AC70895ECCF0895CF93DF93F7
:1048F000EB0186319C4709F50E94610C9D81911561
:1049000099F08A7A91E0811101C090E090933D0482
:10491000811541F085E3EED50E94ED0C80E0DF913A
:10492000CF91089589E2F7CF80913D04811519F068
:1049300085E3E6D5F1CF89E2FCCF81E0F0CFCF93DC
:10494000DF93EC01FB018581811509F4CBC09E0149
:1049500030572332310508F0ABC08DE594E00E945A
:10496000730DFE01E150F047E232F10520F4E75CFF
:10497000FB4C0C94BD3280915D04816080935D049A
:1049800090C080915E04886080935E048AC08091AC
:104990005D048260F3CF80915D048460EFCF8091ED
:1049A0005D048860EBCF80915E048160EDCF8091E3
:1049B0005E048260E9CF80915D048061DFCF8091E9
:1049C0005D048062DBCF80915D048064D7CF0E945C
:1049D000110880915D048068D1CF80915D048C6066
:1049E000CDCF80915E048360CFCF80915D048E7FB8
:1049F000C5CF80915E04877FC7CF80915D048D7F96
:104A0000BDCF80915D048B7FB9CF80915D04877F9E
:104A1000B5CF80915E048E7FB7CF80915E048D7F8D
:104A2000B3CF80915D048F7EA9CF80915D048F7D8F
:104A3000A5CF80915D048F7BA1CF0E94110880914A
:104A40005D048F779BCF80915D04837F97CF8091AA
:104A50005E048C7F99CF80915D04992782FF9395A6
:104A600090FB82F990FB83F989CF80915E04982FA7
:104A7000909590FB80F990FB81F986CF90915D0431
:104A8000892F8F7B96FF806479CF0E9411089091C7
:104A90005D04892F97FB87F9805870CF81E00E94D1
:104AA0007B0D8DE594E00E94750D0E94110880E059
:104AB000DF91CF91089580E0F2CF90915D04892F2E
:104AC0008F7E94FF80615ACF90915D04892F8E7FF5
:104AD00090FF816053CF90915E04892F877F93FF71
:104AE000886052CF81E0E4CF282F35EB2303C0014B
:104AF000112497FF04C080589109892F0895805888
:104B00009F4FFBCF8091440480FF0DC06091E8016E
:104B100070E0660F771F60387105B0F5611571059B
:104B2000A9F1862F089581FF07C06091E80184E014
:104B3000689FB0011124EFCF82FF04C06091E801AB
:104B400088E0F6CF909143049115D9F02091E701C8
:104B50008091E801682F70E0921730F043E0660F13
:104B6000771F4A95E1F7D7CF899FC001112433E021
:104B7000880F991F3A95E1F7622F70E00E946C321E
:104B8000CACF68E070E0CDCF8FE7089581E0089547
:104B90008091440480FF0CC06091E40170E0759541
:104BA0006795759567956115710549F1862F08958B
:104BB00081FF06C06091E40170E075956795F3CFC1
:104BC0006091E40182FD0BC0909142049115A1F027
:104BD0006091E3018091E401961738F0682F70E04E
:104BE0006038710500F38FE70895899FC001112493
:104BF00070E00E946C32F4CF61E070E0D7CF81E0CA
:104C00000895E3E3E80FE331A0F5F0E0E55AFB4C4B
:104C10000C94BD3277DF819580934804089572DF4C
:104C2000FBCF70DF81958093470408956BDFFBCF46
:104C3000AFDF809349040895ABDF8195FACFA8DFF9
:104C4000819580934A040895A3DFFBCF815D990B82
:104C500021E030E001C0220F8A95EAF780914604F6
:104C6000822B809346040895809144048160809350
:104C700044040895809144048260F9CF80914404F3
:104C80008460F5CF409147048D3C59F480914804ED
:104C900087FF0DC010924804411559F41092430447
:104CA00008C08E3C81F48091480418169CF341158D
:104CB00081F08091490490914A04892B811159C057
:104CC0001092420408958F3C41F447FFF0CF1092B8
:104CD0004704809148048115E0CF803D19F41416F3
:104CE000B4F3E5CF90914904893D29F41916FCF6F7
:104CF00010924904DCCF8A3D19F497FFD8CFF8CF42
:104D000090914A048B3D29F497FFD1CF10924A0429
:104D1000CECF8C3D19F41916CCF3C9CF9FE2980F72
:104D2000983090F4815D990B21E030E0B90102C028
:104D3000660F771F8A95E2F7CB0180959091460424
:104D4000892380934604B3CF8D3D31F48091440490
:104D50008E7F80934404ABCF8E3D21F48091440438
:104D60008D7FF7CF8F3D09F0A2CF809144048B7FD8
:104D7000F0CF0895F6D42091470430914804232BB6
:104D8000211521F08093400490934104209149041F
:104D900030914A04232B211521F080933E049093F7
:104DA0003F0485E494E0F3C286E0E5E4F4E0DF014B
:104DB0001D928A95E9F710924304109242041092D2
:104DC00044040895FC01828181110DC08381811109
:104DD0000AC08481811107C081E09581911101C0D1
:104DE00080E08170089581E0FCCFA6E0B0E0EBEFB9
:104DF000F6E20C94CD3286E0E5E4F4E09E012F5F0C
:104E00003F4FD90101900D928A95E1F71092470426
:104E1000109248041092490410924A048B819C819C
:104E2000892B7901811581F0809140049091410492
:104E300019D46C0180914304811599F19091E90195
:104E40009C151D0408F43AC08D819E81892B811523
:104E500089F080913E0490913F0404D48C018091AC
:104E60004204811509F458C09091E501901711068C
:104E700008F460C0B70185E494E053D3811104C005
:104E800085E494E09FDF811175DF86E0F701A5E4FA
:104E9000B4E001900D928A95E1F72696E8E00C9433
:104EA000E9322091EA019AE0299F900111242C1502
:104EB0003D0550F68F5F8093430402C08F3FD1F7CA
:104EC000DB80D11451F01EDE91E01D140CF09FEF39
:104ED000899F802D112480934704DC80D11451F0E8
:104EE00011DE91E01D140CF09FEF899F802D11249D
:104EF0008093480480914704811509F4A5CFD09090
:104F00004804D11409F4A0CFEFDD809347048D2D20
:104F1000EBDD8093480498CF2091E6019AE0299F29
:104F2000900111242017310708F0A4CF8F5F8093E0
:104F3000420402C08F3FD1F71D81111551F028DEC8
:104F400091E011160CF09FEF899F802D1124809322
:104F500049041E81111551F01BDE91E011160CF071
:104F60009FEF899F802D112480934A0480914904EA
:104F7000811509F47FCF10914A04111509F47ACFF5
:104F8000B3DD80934904812FAFDD80934A0472CF53
:104F9000DC01ED91FC91119784913196ED93FC9396
:104FA0000895A0E0B0E0E7EDF7E20C94CC32E82FF2
:104FB000F0E0E655FC4FB490282F269526952695CF
:104FC00030E0F901E65BFB4F0491877010E0082E9A
:104FD00002C0159507950A94E2F701701127F901AF
:104FE000E65CFB4FE490F12C082E02C0F594E794A8
:104FF0000A94E2F7E0FAEE24FF24E0F8F901E65D16
:10500000FB4FC491D0E002C0D595C7958A95E2F7D1
:10501000C170DD27C62ED12C0115110549F5E1140B
:10502000F10431F086EE0E940705C601009771F584
:10503000B6018B2D0E94DE05C601009779F5E114BB
:10504000F104A1F50115110531F081EE0E948D05E5
:10505000C6010097C9F5CD2B31F08CE20E94F60510
:10506000C114D104C9F5CDB7DEB7E9E00C94E8323C
:1050700081EE0E940705C601009789F2EFE9FFE083
:105080003197F1F700C000000197F6CFEFE9FFE09C
:105090003197F1F700C000000197C8CFEFE9FFE0BA
:1050A0003197F1F700C000000197C7CF86EE0E944C
:1050B0008D05C601009731F2EFE9FFE03197F1F776
:1050C00000C000000197F6CFEFE9FFE03197F1F75C
:1050D00000C000000197BDCF8FE99FE00197F1F775
:1050E00000C0000091E0C91AD108BACFA0E0B0E03A
:1050F000ECE7F8E20C94CC327C01D62F172F042F6A
:105100008D2F912FF70109958115B9F0813009F0A4
:1051100060C08D2F912FF7010995C82F813091F430
:105120008D2F912FF70109950E94F605802F90E0B1
:10513000009709F046C0C111E3CFCDB7DEB7E9E073
:105140000C94E832823039F48D2F912FF7010995B4
:105150000E940705EBCF833039F48D2F912FF70193
:1051600009950E948D05E2CF843001F78D2F912F94
:10517000F7010995C82FC12CD12C8AE0B82E2C2F0D
:105180002053330BC9012A30310568F0C114D10412
:1051900069F28FE99FE00197F1F700C0000091E00C
:1051A000C91AD108F3CFBC9C9001BD9C300D1124CD
:1051B0006C01C20ED31E8D2F912FF7010995C82FB8
:1051C000DECFEFE9FFE03197F1F700C00000019773
:1051D000AFCF602FE6DE94CFA2E0B0E0E2EFF8E2DE
:1051E0000C94D332462F9A838983BE016F5F7F4F21
:1051F00088EC97E27BDF2296E2E00C94EF320F938B
:105200001F93CF93DF93C42FD22FFC01858181158B
:10521000C1F040934D04A5D290934C0480934B046D
:1052200080E28C0F883040F4C77081E001C0880FA5
:10523000CA95EAF70E94FD05DF91CF911F910F916A
:10524000089510914D04141332C080914B04909135
:105250004C0408D2883C910550F5C0E2CD0F1D17D3
:10526000C1F080E2810F883040F4177081E001C006
:10527000880F1A95EAF70E940206C83050F491E0B0
:105280008D2F877001C0990F8A95EAF7892F0E94A8
:10529000FD05802F0E94F605C83070F6D77081E0BA
:1052A00001C0880FDA95EAF70E940206C5CF80E2B6
:1052B0008C0F883008F0C0CFC77081E001C0880F24
:1052C000CA95EAF7F1CF0F93DB01FC01E851FC47E7
:1052D000E730F10590F5E259FB4C0C94BD3206E243
:1052E00021EE41EE6AE17CE7CD0189DF80E00F919C
:1052F000089507E225EE45EE6BE17CE7F5CF06E287
:1053000021EE40EE68E17CE7EFCF07E225EE44EEC8
:1053100069E17CE7E9CF06E221EE42EE6CE17CE751
:10532000E3CF07E225EE46EE6DE17CE7DDCF08E254
:1053300021E045EE6EE17CE7D7CF15968C91811187
:1053400010924D0481E0D3CF909353048093520484
:105350000895E0915204F0915304309739F0019090
:10536000F081E02D309711F00995089580E00895BF
:10537000F0CF0895E0915204F0915304309731F04A
:105380000280F381E02D309709F009950895DC0142
:10539000E0915204F0915304309759F0868197813F
:1053A000892B39F082E08C930680F781E02DCD01C6
:1053B00009950895A3E0B0E0E0EEF9E20C94D33251
:1053C0009C01809150049091510482179307B1F091
:1053D0003093510420935004E0915204F09153040F
:1053E000309761F00084F185E02D309739F083E04B
:1053F00089833B832A83CE01019609952396E2E0B7
:105400000C94EF32A3E0B0E0E8E0FAE20C94D3327F
:105410009C0180914E0490914F0482179307B1F044
:1054200030934F0420934E04E0915204F0915304C2
:10543000309761F00084F185E02D309739F084E0F9
:1054400089833B832A83CE01019609952396E2E066
:105450000C94EF324091D3015091D4019A012E5F08
:105460003F4F485F5F4F80E0F90190812F5F3F4FD2
:1054700091118F5F42175307B9F70895811571F0A5
:105480002091D3013091D401F9013296285F3F4F2A
:105490009191981729F0E217F307D1F780E008956A
:1054A00081E008959C01FC0132968FEF90E04191DC
:1054B000461751F08F3F19F4411101C0892F9F5FAA
:1054C0009630A9F78F3F09F40895280F311D87FD05
:1054D0003A95F901628308959C01FC013296285F98
:1054E0003F4F8191861302C0DF011E92E217F3073E
:1054F000C1F70895682F8091D3019091D401D2CF44
:10550000682F8091D3019091D401E6CFE091D3012F
:10551000F091D401329686E0DF011D928A95E9F779
:105520000895DC01FB0111969C91119781819813DC
:1055300022C012968C911297811519F092818913CD
:105540001AC013968C911397811519F093818913C2
:1055500012C015968C911597811519F095818913B4
:105560000AC014969C91911521F081E024812913A1
:1055700003C080E001C081E0817008950895FECFEE
:1055800008958F5F8093EE016091EB017091EC01C3
:105590008091ED019091EE01F2CF83E08093EE01D6
:1055A0006091EB017091EC018091ED019091EE0121
:1055B000E6CFE7CF089581E08093EE016091EB01A3
:1055C0007091EC018091ED019091EE01D8CFF3CF75
:1055D000089591E0811101C090E09093ED016091F8
:1055E000EB017091EC018091ED019091EE01C7CF3C
:1055F0008091ED0108958093EC016091EB01709131
:10560000EC018091ED019091EE01B9CF8091EC0118
:1056100008958093EB016091EB017091EC01809112
:10562000ED019091EE01ABCF8091EB0108950895CB
:105630000895FECF089508950895F9CF0895CF9362
:10564000FADF0E94AC11F8DFC0E08C2F0E94E61058
:10565000892B31F4CF5FC430C1F780E0CF9108953A
:1056600081E0FCCFCF93DF93EC017BD08C1B9D0BB3
:10567000DF91CF910895CF92DF92EF92FF926B016D
:105680007C017BD06C197D098E099F09FF90EF90FA
:10569000DF90CF90089585B7806885BF85B7806813
:1056A00085BF08951F921FB61F9211248F939F9359
:1056B000AF93BF9380915404811113C0809143052F
:1056C00090914405A0914505B09146054196A11DD4
:1056D000B11D8093430590934405A0934505B09375
:1056E0004605BF91AF919F918F911F901FBE1F9054
:1056F000189580914B05843031F10E9489041092F5
:10570000540488E190E020E40FB6F894A8958093C3
:1057100060000FBE2093600083B7817F846083BFE9
:1057200083B7816083BF7894889583B78E7F83BF6A
:105730000FB6F894A895809160008861809360000E
:10574000109260000FBE08950E9411080C949204FC
:1057500082E084BD93E095BD9AEF97BD80936E0083
:1057600008952FB7F8948091430590914405A09136
:105770004505B09146052FBF08952FB7F894609165
:1057800043057091440580914505909146052FBFD2
:10579000089578941F921FB61F9211248F939F93A0
:1057A000AF93BF938091430590914405A091450527
:1057B000B09146050196A11DB11D809343059093BC
:1057C0004405A0934505B0934605BF91AF919F91C5
:1057D0008F911F901FBE1F90189581E08093E0006D
:1057E00080E28093D8001092C9008FE19EE4019777
:1057F000F1F700C0000087E090EBDC0180935405D6
:1058000090935505A0935605B093570588E19CE009
:105810000FB6F894A895809360000FBE9093600037
:10582000FFCF88E19CE00FB6F894A89580936000C4
:105830000FBE90936000FFCF0895282FCB01BA01CF
:1058400030914B053430D1F42F702093E9002FEFC5
:105850003091E80035FD06C035ED3A95F1F70000CE
:105860002A95B1F72091E80025FF08C040E050E0FC
:10587000B6D18091E8008E778093E8000895BC014E
:1058800043E050E082E0D9CFBC0146E050E082E046
:10589000D4CFCF93DF93D82FC92FAADE48E050E0B2
:1058A0006D2F7C2F81E0C9DF88E0ED2FFC2FA5E56F
:1058B000B4E001900D928A95E1F7DF91CF910895C0
:1058C00080914A05811107C011D368D38091E2000D
:1058D00084608093E200089510924A0508956BDE7B
:1058E00081E077CE6091470581E0611101C080E0E1
:1058F00054CE90914B0581E0943009F080E06091A6
:10590000470557CE42E061EC81E06CD242E261ECA7
:1059100082E068D290914B0581E0943009F080E0FC
:10592000609147052ECE80914D05893081F148F474
:10593000823009F495C0833009F456C0813041F0BB
:1059400008958A3009F47FC08B3009F467C0089548
:1059500080914C05813A09F046C08091E800877F2C
:105960008093E8008091500590915105892B59F062
:1059700060E080E090E070E080D18091E8008B777B
:105980008093E800089568E085E594E0F4CF809185
:105990004C05813241F58091500590915105029757
:1059A00010F58091E800877F8093E8008091E800FF
:1059B00082FF15C09091F3008091F200029731F4BC
:1059C0008091F100813011F0863019F48091F1005E
:1059D00012DE8091E8008B778093E80037C28091D7
:1059E0004B058111E3CF089580914C05813AD9F799
:1059F0008091500590915105892BA9F78091E8007D
:105A0000877F8093E8008091E80080FFFCCFF0DD85
:105A10008093F1008091E8008E77DECF80914C0575
:105A2000813209F78091500590915105892BD9F663
:105A30008091E800877F8093E80008D280914E052E
:105A4000C8DD0C94110880914C05813261F680917B
:105A5000E800877F8093E800F9D180914F05D9CD88
:105A600080914C05813A09F0BECF8091E800877F94
:105A70008093E8008091E80080FFFCCFD5DDC8CF9F
:105A800084B7877F84BF0FB6F894A8958091600093
:105A9000886180936000109260000FBE80E890E003
:105AA0000FB6F89480936100909361000FBE8FCD84
:105AB0001DD274D2E2EEF0E080818460808378941D
:105AC000DEC48FEE91E040CC80914B05853029F407
:105AD00080914B05853011F037CE08950ADEAFDD99
